:03000000020830C3
:0C083000787FE4F6D8FD75810D020763A7
:1007F100323032342F392F323000497368746172CC
:0108010000F6
:1007630043BA801208021208481205F37BFF7A0786
:1007730079F1E4FDFF1206F97BFF7A0779FB7D022D
:07078300E4FF1206F980FEFD
:1000030000000000000000000000000000000000ED
:10001300000000F800000000000000333000000082
:1000230000100C06100C0600000000000000000089
:1000330040C07840C0784000043F04043F040400FB
:10004300007088FC08300000001820FF211E00000B
:10005300F008F000E018000000211C031E211E0020
:1000630000F00888700000001E21232419272110A6
:1000730010160E0000000000000000000000000049
:10008300000000E0180402000000000718204000F0
:1000930000020418E00000000040201807000000E0
:1000A300404080F0804040000202010F0102020044
:1000B300000000F0000000000101011F0101010028
:1000C300000000000000000080B07000000000008D
:1000D3000000000000000000000101010101010116
:1000E30000000000000000000030300000000000AD
:1000F3000000000080601804006018060100000082
:1001030000E010080810E000000F102020100F007E
:10011300001010F8000000000020203F2020000005
:10012300007008080888700000302824222130005D
:1001330000300888884830000018202020110E0065
:100143000000C02010F8000000070424243F24000E
:1001530000F80888880808000019212020110E00E3
:1001630000E0108888180000000F112020110E00F5
:1001730000380808C83808000000003F00000000ED
:100183000070880808887000001C222121221C00AE
:1001930000E010080810E0000000312222110F00D7
:1001A300000000C0C000000000000030300000006C
:1001B30000000080000000000000806000000000DC
:1001C30000008040201008000001020408102000F5
:1001D3004040404040404000040404040404040040
:1001E30000081020408000000020100804020100D5
:1001F300007048080808F0000000003036010000D5
:10020300C030C828E810E0000718272423140B0087
:100213000000C038E0000000203C23020227382001
:1002230008F8888888700000203F202020110E00E5
:10023300C0300808080838000718202020100800DC
:1002430008F808080810E000203F202020100F00C5
:1002530008F88888E8081000203F20202320180091
:1002630008F88888E8081000203F200003000000F9
:10027300C03008080838000007182020221E02009A
:1002830008F808000008F808203F210101213F2059
:10029300000808F8080800000020203F2020000084
:1002A30000000808F8080800C08080807F00000074
:1002B30008F888C028180800203F200126382000AD
:1002C30008F8080000000000203F20202020300014
:1002D30008F8F800F8F80800203F003F003F20002E
:1002E30008F830C00008F808203F200007183F0036
:1002F300E01008080810E0000F10202020100F0065
:1003030008F808080808F000203F21010101000057
:10031300E01008080810E0000F18242438504F009C
:1003230008F8888888887000203F2000030C30205C
:1003330000708808080838000038202121221C009A
:10034300180808F8080818000000203F20000000E3
:1003530008F808000008F808001F202020201F00CC
:100363000878880000C83808000007380E0100002C
:10037300F80800F80008F800033C0700073C0300F6
:10038300081868808068180820302C03032C30205C
:100393000838C800C83808000000203F20000000CB
:1003A30010080808C8380800203826212020180023
:1003B300000000FE020202000000007F40404000F7
:1003C300000C30C000000000000000010638C0002F
:1003D30000020202FE000000004040407F000000D7
:1003E30000000402020204000000000000000000FC
:1003F30000000000000000008080808080808080FA
:1004030000020204000000000000000000000000E1
:1004130000008080808000000019242222223F20D7
:1004230008F8008080000000003F112020110E001A
:100433000000008080800000000E112020201100A9
:10044300000000808088F800000E112020103F205B
:100453000000808080800000001F222222221300DF
:10046300008080F0888888180020203F202000002A
:100473000000808080808000006B949494936000DF
:1004830008F8008080800000203F210000203F20EA
:1004930000809898000000000020203F20200000EA
:1004A300000000809898000000C08080807F0000DA
:1004B30008F8000080808000203F24022D302000B7
:1004C300000808F8000000000020203F2020000062
:1004D3008080808080808000203F20003F20003F7C
:1004E3008080008080800000203F210000203F208A
:1004F3000000808080800000001F202020201F003B
:10050300808000808000000080FFA12020110E0069
:100513000000008080808000000E112020A0FF805A
:10052300808080008080800020203F212000010007
:10053300000080808080800000332424242419005C
:10054300008080E0808000000000001F2020000069
:100553008080000000808000001F202020103F20AA
:10056300808080000080808000010E30080601003A
:1005730080800080008080800F300C030C300F00DF
:1005830000808000808080000020312E0E3120000A
:10059300808080000080808080818E70180601003A
:1005A30000808080808080000021302C2221300058
:1005B30000000000807C020200000000003F404079
:1005C30000000000FF00000000000000FF0000002A
:1005D3000002027C800000000040403F0000000059
:1005E30000060101020204040000000000000000F4
:1008020075FF50E4F593F594F595F596F5B1F5B2CB
:0108120022C3
:0A08480043BA1090FE8074E0F02225
:0F08130090FE82E030E6F990FE82E054BFF022C2
:0908520090FE817401F00208130C
:0E08220090FE86EFF090FE817402F002081343
:03083C001208227D
:09083F0090FE817403F00208131D
:09085B0090FE817406F0020813FE
:05078A0012078FE4FFDF
:10078F00AE071208527F7812083CED7003FF80020B
:10079F007F4012083CAF0612082212083F02085B86
:1007D100AC07ED24B0FFE4FD12078FEC54F0C454D4
:1007E1000F4410FF12078FEC540F4401FF02078FD3
:1007AF00E4FCEC24B0FFE4FD12078A7F1012078FE0
:1007BF00E4FB7D01E4FF12078F0BBB80F50CBC0837
:0107CF00E148
:0107D0002206
:06068500AA07A905AF035E
:10068B00E4FCEF24E0FBEAD3947F4004E4FA09098D
:10069B00AF02AD011207D1E4FC75F010EBA42CF501
:1006AB0082E435F0F583E5822403F582E58334009B
:1006BB00F583E493FF7D0112078F0CBC08DBAF02BF
:1006CB00E904FD1207D1E4FC75F010EBA42CF582C4
:1006DB00E435F0F583E582240BF582E5833400F5F0
:0D06EB0083E493FF7D0112078F0CBC08DB38
:0106F80022DF
:0A06F9008F088D098B0A8A0B890C0B
:10070300E4F50DAB0AAA0BA90C850D8275830012C3
:100713000736FB601DAD09AF08120685740825086E
:10072300F508D394784007E4F50805090509050D94
:0207330080D173
:0107350022A1
:1005F300E4FD7FAE12078A7F1012078F7F40120738
:100603008F7F8112078F7FCF12078F7FA112078FF2
:100613007FC812078F7FA612078F7FA812078F7FCD
:100623003F12078F7FD312078A7FD512078F7F80F0
:1006330012078F7FD912078F7FF112078F7FDA128C
:10064300078F7F1212078F7FDB12078F7F401207FE
:100653008F7F2012078F7F0212078F7F8D12078FE4
:100663007F1412078F7FA412078F7FA612078F7F35
:10067300AF12078F7FAF12078F1207AFE4FDFF02A0
:0206830007D19D
:10073600BB010CE58229F582E5833AF583E0225078
:1007460006E92582F8E622BBFE06E92582F8E222C2
:0D075600E58229F582E5833AF583E49322DC
:00000001FF
