:0300000002068A6B
:0C068A00787FE4F6D8FD75810D0206D1E2
:10089E00323032342F392F3230004973687461721E
:0608AE000041424344003A
:1007880043BA801208B41208EE1205F81200007B72
:10079800FF7A08799EE4FDFF1207CD7BFF7A08797E
:1007A800A87D02E4FF1207CD7F407EE21200007FA1
:1007B800797EE97DF67C421200007BFF7A0879AFEA
:0507C80012000080E3B7
:1000030065F0000000000000000000000000000098
:1000130000000000000000F80000000000000033B2
:100023003000000000100C06100C06000000000059
:100033000000000040C07840C0784000043F040442
:100043003F040400007088FC08300000001820FF03
:10005300211E0000F008F000E018000000211C033E
:100063001E211E0000F00888700000001E212324BA
:100073001927211010160E000000000000000000D8
:1000830000000000000000E0180402000000000768
:100093001820400000020418E0000000004020186F
:1000A30007000000404080F0804040000202010F42
:1000B30001020200000000F0000000000101011F26
:1000C30001010100000000000000000080B070008A
:1000D300000000000000000000000000000101011A
:1000E30001010101000000000000000000303000A9
:1000F3000000000000000000806018040060180683
:100103000100000000E010080810E000000F1020BC
:1001130020100F00001010F8000000000020203F06
:100123002020000000700808088870000030282490
:100133002221300000300888884830000018202031
:1001430020110E000000C02010F800000007042456
:10015300243F240000F8088888080800001921209B
:1001630020110E0000E0108888180000000F1120F5
:1001730020110E0000380808C83808000000003FAE
:10018300000000000070880808887000001C22210D
:1001930021221C0000E010080810E00000003122BA
:1001A30022110F00000000C0C0000000000000305A
:1001B30030000000000000800000000000008060AC
:1001C300000000000000804020100800000102042D
:1001D3000810200040404040404040000404040414
:1001E30004040400000810204080000000201008D0
:1001F30004020100007048080808F0000000003005
:1002030036010000C030C828E810E0000718272492
:1002130023140B000000C038E0000000203C230240
:100223000227382008F8888888700000203F2020A3
:1002330020110E00C03008080808380007182020D5
:100243002010080008F808080810E000203F2020CC
:1002530020100F0008F88888E8081000203F2020AD
:100263002320180008F88888E8081000203F2000A1
:1002730003000000C03008080838000007182020D9
:10028300221E020008F808000008F808203F210198
:1002930001213F20000808F8080800000020203F43
:1002A3002020000000000808F8080800C0808080B3
:1002B3007F00000008F888C028180800203F2001AC
:1002C3002638200008F8080000000000203F202006
:1002D3002020300008F8F800F8F80800203F003F1D
:1002E300003F200008F830C00008F808203F200035
:1002F30007183F00E01008080810E0000F10202046
:1003030020100F0008F808080808F000203F21011A
:1003130001010000E01008080810E0000F18242471
:1003230038504F0008F8888888887000203F2000E4
:10033300030C30200070880808083800003820219A
:1003430021221C00180808F8080818000000203FA4
:100353002000000008F808000008F808001F20200B
:1003630020201F000878880000C8380800000738DC
:100373000E010000F80800F80008F800033C07002D
:10038300073C0300081868808068180820302C0395
:10039300032C30200838C800C83808000000203F6C
:1003A3002000000010080808C8380800203826215B
:1003B30020201800000000FE020202000000007F5F
:1003C30040404000000C30C000000000000000016D
:1003D3000638C00000020202FE0000000040404058
:1003E3007F0000000000040202020400000000007D
:1003F30000000000000000000000000080808080FA
:1004030080808080000202040000000000000000E1
:10041300000000000000808080800000001924227A
:1004230022223F2008F8008080000000003F1120B6
:1004330020110E000000008080800000000E1120BB
:1004430020201100000000808088F800000E112099
:1004530020103F200000808080800000001F2222A7
:1004630022221300008080F0888888180020203F13
:10047300202000000000808080808000006B949426
:100483009493600008F8008080800000203F2100E2
:1004930000203F2000809898000000000020203FAB
:1004A30020200000000000809898000000C0808099
:1004B300807F000008F8000080808000203F240235
:1004C3002D302000000808F8000000000020203F25
:1004D300202000008080808080808000203F2000DA
:1004E3003F20003F8080008080800000203F21006B
:1004F30000203F200000808080800000001F20201B
:1005030020201F00808000808000000080FFA12049
:1005130020110E000000008080808000000E11205A
:1005230020A0FF80808080008080800020203F21E9
:10053300200001000000808080808000003324249C
:1005430024241900008080E0808000000000001F48
:10055300202000008080000000808000001F2020F9
:1005630020103F20808080000080808000010E30BA
:100573000806010080800080008080800F300C031B
:100583000C300F0000808000808080000020312E1E
:100593000E312000808080000080808080818E70FA
:1005A3001806010000808080808080000021302CAC
:1005B3002221300000000000807C020200000000C5
:1005C300003F404000000000FF000000000000006A
:1005D300FF0000000002027C800000000040403F5A
:1005E30000000000000601010202040400000000F4
:0405F3000000000004
:1008B40075FF50E4F593F594F595F596F5B1F5B219
:0108C4002211
:0A08EE0043BA1090FE8074E0F0227F
:0F08C50090FE82E030E6F990FE82E054BFF02210
:0908F80090FE817401F00208C5B4
:0E08D40090FE86EFF090FE817402F00208C5DF
:0308E2001208D425
:0908E50090FE817403F00208C5C5
:0909010090FE817406F00208C5A5
:0508370012083CE4FF83
:10083C00AE071208F87F781208E2ED7003FF800211
:10084C007F401208E2AF061208D41208E502090133
:10087E00AC07ED24B0FFE4FD12083CEC54F0C45478
:10088E000F4410FF12083CEC540F4401FF02083CC9
:10085C00E4FCEC24B0FFE4FD1208377F1012083CD6
:10086C00E4FB7D01E4FF12083C0BBB80F50CBC08DB
:01087C00E19A
:01087D002258
:06071600AA07A905AF03CC
:10071C00E4FCEF24E0FBEAD3947F4004E4FA0909FB
:10072C00AF02AD0112087EE4FC75F010EBA42CF5C1
:10073C0082E435F0F583E5822400F582E58334000C
:10074C00F583E0FF7D0112083C0CBC08DCAF02E92C
:10075C0004FD12087EE4FC75F010EBA42CF582E489
:10076C0035F0F583E5822408F582E5833400F583C2
:0B077C00E0FF7D0112083C0CBC08DC13
:01078700224F
:0A07CD008F088D098B0A8A0B890C36
:1007D700E4F50DAB0AAA0BA90C850D8275830012EF
:1007E700080AFB601DAD09AF081207167408250833
:1007F700F508D394784007E4F50805090509050DC0
:0208070080D19E
:0108090022CC
:1005F800E4FD7FAE1208377F1012083C7F401208D6
:100608003C7F8112083C7FCF12083C7FA112083C36
:100618007FC812083C7FA612083C7FA812083C7FBE
:100628003F12083C7FD31208377FD512083C7F80E1
:1006380012083C7FD912083C7FF112083C7FDA127D
:10064800083C7F1212083C7FDB12083C7F401208EE
:100658003C7F2012083C7F0212083C7F8D12083C28
:100668007F1412083C7FA412083C7FA612083C7F26
:10067800AF12083C7FAF12083C12085CE4FDFF0291
:02068800087EEA
:10069600020788E493A3F8E493A34003F68001F2EB
:1006A60008DFF48029E493A3F85407240CC8C33365
:1006B600C4540F4420C8834004F456800146F6DF34
:1006C600E4800B0102040810204080900003E47EC1
:1006D600019360BCA3FF543F30E509541FFEE49329
:1006E600A360010ECF54C025E060A840B8E493A3F0
:1006F600FAE493A3F8E493A3C8C582C8CAC583CA1B
:10070600F0A3C8C582C8CAC583CADFE9DEE780BED2
:0105F7000003
:10080A00BB010CE58229F582E5833AF583E02250A3
:10081A0006E92582F8E622BBFE06E92582F8E222ED
:0D082A00E58229F582E5833AF583E4932207
:00000001FF
